{
  "_format": "hh-sol-artifact-1",
  "contractName": "Tracker",
  "sourceName": "contracts/Tracker.sol",
  "abi": [
    {
      "inputs": [],
      "name": "getAllTransactions",
      "outputs": [
        {
          "components": [
            {
              "internalType": "address",
              "name": "receiver",
              "type": "address"
            },
            {
              "internalType": "uint256",
              "name": "amount",
              "type": "uint256"
            },
            {
              "internalType": "uint256",
              "name": "timestamp",
              "type": "uint256"
            }
          ],
          "internalType": "struct Tracker.Transaction[]",
          "name": "",
          "type": "tuple[]"
        }
      ],
      "stateMutability": "view",
      "type": "function"
    },
    {
      "inputs": [
        {
          "internalType": "address",
          "name": "_receiver",
          "type": "address"
        },
        {
          "internalType": "uint256",
          "name": "_amount",
          "type": "uint256"
        }
      ],
      "name": "sendTransaction",
      "outputs": [],
      "stateMutability": "payable",
      "type": "function"
    }
  ],
  "bytecode": "0x6080604052348015600f57600080fd5b506104fa8061001f6000396000f3fe6080604052600436106100295760003560e01c806327506f531461002e578063d709deb714610059575b600080fd5b34801561003a57600080fd5b50610043610075565b6040516100509190610405565b60405180910390f35b610073600480360381019061006e9190610484565b61017a565b005b60606000803373ffffffffffffffffffffffffffffffffffffffff1673ffffffffffffffffffffffffffffffffffffffff168152602001908152602001600020805480602002602001604051908101604052809291908181526020016000905b8282101561017157838290600052602060002090600302016040518060600160405290816000820160009054906101000a900473ffffffffffffffffffffffffffffffffffffffff1673ffffffffffffffffffffffffffffffffffffffff1673ffffffffffffffffffffffffffffffffffffffff16815260200160018201548152602001600282015481525050815260200190600101906100d5565b50505050905090565b6000803373ffffffffffffffffffffffffffffffffffffffff1673ffffffffffffffffffffffffffffffffffffffff16815260200190815260200160002060405180606001604052808473ffffffffffffffffffffffffffffffffffffffff16815260200183815260200142815250908060018154018082558091505060019003906000526020600020906003020160009091909190915060008201518160000160006101000a81548173ffffffffffffffffffffffffffffffffffffffff021916908373ffffffffffffffffffffffffffffffffffffffff160217905550602082015181600101556040820151816002015550508173ffffffffffffffffffffffffffffffffffffffff166108fc829081150290604051600060405180830381858888f193505050501580156102b5573d6000803e3d6000fd5b505050565b600081519050919050565b600082825260208201905092915050565b6000819050602082019050919050565b600073ffffffffffffffffffffffffffffffffffffffff82169050919050565b6000610311826102e6565b9050919050565b61032181610306565b82525050565b6000819050919050565b61033a81610327565b82525050565b6060820160008201516103566000850182610318565b5060208201516103696020850182610331565b50604082015161037c6040850182610331565b50505050565b600061038e8383610340565b60608301905092915050565b6000602082019050919050565b60006103b2826102ba565b6103bc81856102c5565b93506103c7836102d6565b8060005b838110156103f85781516103df8882610382565b97506103ea8361039a565b9250506001810190506103cb565b5085935050505092915050565b6000602082019050818103600083015261041f81846103a7565b905092915050565b600080fd5b61043581610306565b811461044057600080fd5b50565b6000813590506104528161042c565b92915050565b61046181610327565b811461046c57600080fd5b50565b60008135905061047e81610458565b92915050565b6000806040838503121561049b5761049a610427565b5b60006104a985828601610443565b92505060206104ba8582860161046f565b915050925092905056fea26469706673582212203956adb7b34e380af4257d36b04d8c049b150f8ec184fea19ddec06bad0d10ca64736f6c634300081c0033",
  "linkReferences": {},
  "deployedLinkReferences": {}
}